{
  "_format": "hh-sol-artifact-1",
  "contractName": "SimpleStorage",
  "sourceName": "contracts/simple-storage.sol",
  "abi": [
    {
      "inputs": [],
      "stateMutability": "nonpayable",
      "type": "constructor"
    },
    {
      "anonymous": false,
      "inputs": [
        {
          "indexed": false,
          "internalType": "string",
          "name": "newMessage",
          "type": "string"
        }
      ],
      "name": "MessageUpdated",
      "type": "event"
    },
    {
      "anonymous": false,
      "inputs": [
        {
          "indexed": true,
          "internalType": "address",
          "name": "newOwner",
          "type": "address"
        }
      ],
      "name": "OwnerSet",
      "type": "event"
    },
    {
      "anonymous": false,
      "inputs": [
        {
          "indexed": false,
          "internalType": "uint256",
          "name": "newValue",
          "type": "uint256"
        }
      ],
      "name": "ValueUpdated",
      "type": "event"
    },
    {
      "inputs": [],
      "name": "getMessage",
      "outputs": [
        {
          "internalType": "string",
          "name": "",
          "type": "string"
        }
      ],
      "stateMutability": "view",
      "type": "function"
    },
    {
      "inputs": [],
      "name": "getValue",
      "outputs": [
        {
          "internalType": "uint256",
          "name": "",
          "type": "uint256"
        }
      ],
      "stateMutability": "view",
      "type": "function"
    },
    {
      "inputs": [],
      "name": "owner",
      "outputs": [
        {
          "internalType": "address",
          "name": "",
          "type": "address"
        }
      ],
      "stateMutability": "view",
      "type": "function"
    },
    {
      "inputs": [
        {
          "internalType": "string",
          "name": "_message",
          "type": "string"
        }
      ],
      "name": "setMessage",
      "outputs": [],
      "stateMutability": "nonpayable",
      "type": "function"
    },
    {
      "inputs": [
        {
          "internalType": "uint256",
          "name": "_value",
          "type": "uint256"
        }
      ],
      "name": "setValue",
      "outputs": [],
      "stateMutability": "nonpayable",
      "type": "function"
    }
  ],
  "bytecode": "0x6080604052348015600f57600080fd5b50600180546001600160a01b031916339081179091556040517f50146d0e3c60aa1d17a70635b05494f864e86144a2201275021014fbf08bafe290600090a26105718061005d6000396000f3fe608060405234801561001057600080fd5b50600436106100675760003560e01c8063552410771161005057806355241077146100975780638da5cb5b146100aa578063ce6d41de146100ef57600080fd5b8063209652551461006c578063368b877214610082575b600080fd5b6000546040519081526020015b60405180910390f35b6100956100903660046102d3565b610104565b005b6100956100a536600461038c565b6101a3565b6001546100ca9073ffffffffffffffffffffffffffffffffffffffff1681565b60405173ffffffffffffffffffffffffffffffffffffffff9091168152602001610079565b6100f761022b565b60405161007991906103a5565b60015473ffffffffffffffffffffffffffffffffffffffff16331461015c5760405162461bcd60e51b81526020600482015260096024820152682737ba1037bbb732b960b91b60448201526064015b60405180910390fd5b6002610168828261047c565b507f8fae638bf5c6396194a6bb16601c4035a07fa48191638ff4102f0d96f14cfefb8160405161019891906103a5565b60405180910390a150565b60015473ffffffffffffffffffffffffffffffffffffffff1633146101f65760405162461bcd60e51b81526020600482015260096024820152682737ba1037bbb732b960b91b6044820152606401610153565b60008190556040518181527f4273d0736f60e0dedfe745e86718093d8ec8646ebd2a60cd60643eeced56581190602001610198565b60606002805461023a906103f3565b80601f0160208091040260200160405190810160405280929190818152602001828054610266906103f3565b80156102b35780601f10610288576101008083540402835291602001916102b3565b820191906000526020600020905b81548152906001019060200180831161029657829003601f168201915b5050505050905090565b634e487b7160e01b600052604160045260246000fd5b6000602082840312156102e557600080fd5b813567ffffffffffffffff8111156102fc57600080fd5b8201601f8101841361030d57600080fd5b803567ffffffffffffffff811115610327576103276102bd565b604051601f8201601f19908116603f0116810167ffffffffffffffff81118282101715610356576103566102bd565b60405281815282820160200186101561036e57600080fd5b81602084016020830137600091810160200191909152949350505050565b60006020828403121561039e57600080fd5b5035919050565b602081526000825180602084015260005b818110156103d357602081860181015160408684010152016103b6565b506000604082850101526040601f19601f83011684010191505092915050565b600181811c9082168061040757607f821691505b60208210810361042757634e487b7160e01b600052602260045260246000fd5b50919050565b601f82111561047757806000526020600020601f840160051c810160208510156104545750805b601f840160051c820191505b818110156104745760008155600101610460565b50505b505050565b815167ffffffffffffffff811115610496576104966102bd565b6104aa816104a484546103f3565b8461042d565b6020601f8211600181146104de57600083156104c65750848201515b600019600385901b1c1916600184901b178455610474565b600084815260208120601f198516915b8281101561050e57878501518255602094850194600190920191016104ee565b508482101561052c5786840151600019600387901b60f8161c191681555b50505050600190811b0190555056fea264697066735822122007f78a3e7ee05ca7d4a5e7d9b9747b820f770caceb6b6d09dc34685b954cd3ca64736f6c634300081c0033",
  "linkReferences": {},
  "deployedLinkReferences": {}
}